:100000000C942A000C94F40E0C94270F0C945A0FA5
:100010000C9447000C9447000C9447000C947F13F9
:100020000C9447000C942F130C9447000C94470039
:100030000C9447000C9447000C9447000C94470024
:100040000C9447000C9447000C9447000C94470014
:100050000C94470011241FBECFE5D4E0DEBFCDBF16
:1000600010E0A0E6B0E0ECE6FEE202C005900D92E2
:10007000AE36B107D9F710E0AEE6B0E001C01D9290
:10008000AE39B107E1F70E9403140C9434170C94B5
:100090000000EF92FF920F931F937B018C0120E0F1
:1000A00030E040E05FE40E94F50388238CF0C80153
:1000B000B70120E030E040E05FE40E94C1010E940F
:1000C00055049B01AC01205030404040504806C0D0
:1000D000C801B7010E9455049B01AC01B901CA01D6
:1000E0001F910F91FF90EF900895A0E0B0E0EBE733
:1000F000F0E00C94FD16DC012B01FA019C9192308A
:1001000008F439C1EB018881823008F433C194309E
:1001100069F4843009F02FC111969C91119789815F
:10012000981709F428C1A6E6B0E025C1843009F487
:1001300021C18230A9F4923009F01DC19A01AD01AC
:1001400088E0EA010990AE01E90109929E0181501F
:10015000C1F7E201898111969C918923818308C1AD
:10016000923009F407C112962D903C901397EB0141
:100170008A819B811496AD90BD90CD90DC901797AD
:10018000EC80FD800E811F819101281B390BB90184
:1001900037FF04C066277727621B730B6032710537
:1001A0000CF061C0121613066CF537014801062EDB
:1001B00004C096948794779467940A94D2F721E0C8
:1001C00030E040E050E004C0220F331F441F551FB1
:1001D0006A95D2F721503040404050402E213F21B7
:1001E00040235123211531054105510521F021E01E
:1001F00030E040E050E079018A01E628F72808293C
:1002000019293CC0232BD1F1260E371E350146019A
:10021000062E04C096948794779467940A94D2F734
:1002200021E030E040E050E004C0220F331F441FC3
:10023000551F6A95D2F721503040404050402A2146
:100240003B214C215D21211531054105510521F04E
:1002500021E030E040E050E059016A01A628B728CB
:10026000C828D9280BC0821593052CF01C01AA249C
:10027000BB24650103C0EE24FF24870111969C91E5
:10028000D20111968C91981709F445C0992339F041
:10029000A80197012A193B094C095D0906C0A6016E
:1002A00095012E193F09400B510B57FD08C01182D3
:1002B0003382228224833583468357831DC081E0A5
:1002C00081833382228288279927DC01821B930B4A
:1002D000A40BB50B84839583A683B7830DC0220F2F
:1002E000331F441F551F24833583468357838281E0
:1002F000938101979383828324813581468157813D
:10030000DA01C9010197A109B1098F5F9F4FAF4F72
:10031000BF4328F30BC0918333822282EA0CFB1C7B
:100320000C1D1D1DE482F5820683178383E0808304
:10033000248135814681578157FF1AC0C901AA27F8
:1003400097FDA095BA2F81709070A070B0705695EF
:10035000479537952795822B932BA42BB52B848318
:100360009583A683B7838281938101969383828349
:10037000DF0101C0D201CD01CDB7DEB7E2E10C94BF
:100380001917A0E2B0E0E7ECF1E00C9409176983DB
:100390007A838B839C832D833E834F835887E9E048
:1003A000EE2EF12CEC0EFD1ECE010196B7010E943F
:1003B0007E058E010F5E1F4FCE010596B8010E948B
:1003C0007E058A8991E089278A8BC701B801AE0131
:1003D000475E5F4F0E9475000E94A904A096E6E068
:1003E0000C942517A0E2B0E0E8EFF1E00C940917B7
:1003F00069837A838B839C832D833E834F835887C5
:10040000F9E0EF2EF12CEC0EFD1ECE010196B701A6
:100410000E947E058E010F5E1F4FCE010596B8012A
:100420000E947E05C701B801AE01475E5F4F0E9482
:1004300075000E94A904A096E6E00C942517A0E29E
:10044000B0E0E5E2F2E00C94FD1669837A838B83D9
:100450009C832D833E834F835887CE010196BE0136
:10046000675F7F4F0E947E05CE010596BE016F5EDD
:100470007F4F0E947E059985923088F0898982306D
:10048000C8F0943019F4823051F404C0843029F457
:10049000923081F486E690E0C6C0923049F420E0C4
:1004A0009A858A89981321E02A87CE010996BBC0D4
:1004B000823049F420E09A858A89981321E02A8BBA
:1004C000CE014196B0C02D843E844F8458886D88FB
:1004D0007E888F88988CEE24FF248701AA24BB2471
:1004E000650140E050E060E070E0E0E0F0E0C10174
:1004F00081709070892BE9F0E60CF71C081D191D1E
:100500009A01AB012A0D3B1D4C1D5D1D80E090E062
:10051000A0E0B0E0E614F7040805190520F481E036
:1005200090E0A0E0B0E0BA01A901480F591F6A1F8E
:100530007B1FAA0CBB1CCC1CDD1C97FE08C081E0F5
:1005400090E0A0E0B0E0A82AB92ACA2ADB2A3196B6
:10055000E032F10549F0660C771C881C991C569412
:10056000479437942794C3CFFA85EA892B893C892D
:100570008B859C85280F391F2E5F3F4F17C0CA01FE
:1005800081709070892B61F016950795F794E79428
:1005900080E090E0A0E0B0E8E82AF92A0A2B1B2BC3
:1005A00076956795579547952F5F3F4F77FDE7CF36
:1005B0000CC0440F551F661F771F17FD4160EE0CDE
:1005C000FF1C001F111F21503040403090E05907A0
:1005D00090E0690790E4790760F32B8F3C8FDB0193
:1005E000CA018F779070A070B07080349105A1051A
:1005F000B10561F447FD0AC0E114F10401051105DC
:1006000029F0405C5F4F6F4F7F4F40781A8EFE1786
:1006100011F081E08A8F4D8F5E8F6F8F78A383E01A
:10062000898FCE0149960E94A904A096E2E10C941C
:100630001917A8E1B0E0EFE1F3E00C940517698326
:100640007A838B839C832D833E834F835887B9E0C5
:10065000EB2EF12CEC0EFD1ECE010196B7010E948F
:100660007E058E010F5E1F4FCE010596B8010E94D8
:100670007E052985223008F47EC03989323010F495
:10068000B8017CC08A859A8989278A87243011F02D
:10069000223031F4231709F06EC066E670E06EC0B8
:1006A000343039F41D861E861F86188A1C861B86E8
:1006B00004C0323021F484E08987B7015FC02B8504
:1006C0003C858B899C89281B390B3C872B87ED84C3
:1006D000FE840F851889AD88BE88CF88D88CEA142F
:1006E000FB040C051D0540F4EE0CFF1C001F111F40
:1006F000215030403C872B8720E030E040E050E044
:1007000080E090E0A0E0B0E460E070E0EA14FB0478
:100710000C051D0540F0282B392B4A2B5B2BEA18C2
:10072000FB080C091D09B695A79597958795EE0CC2
:10073000FF1C001F111F6F5F7F4F6F31710531F775
:10074000DA01C9018F779070A070B0708034910584
:10075000A105B10561F427FD0AC0E114F10401050A
:10076000110529F0205C3F4F4F4F5F4F20782D87B8
:100770003E874F87588BBE01675F7F4FCB010E943A
:10078000A9046896EAE00C942117A8E1B0E0EBEC2C
:10079000F3E00C94091769837A838B839C832D8300
:1007A0003E834F83588789E0E82EF12CEC0EFD1E26
:1007B000CE010196B7010E947E058E010F5E1F4F8C
:1007C000CE010596B8010E947E058985823040F0F1
:1007D0008989823028F0C701B8010E94F60501C05E
:1007E0008FEF6896E6E00C942517A8E1B0E0EBEFF8
:1007F000F3E00C94091769837A838B839C832D83A0
:100800003E834F83588789E0E82EF12CEC0EFD1EC5
:10081000CE010196B7010E947E058E010F5E1F4F2B
:10082000CE010596B8010E947E058985823040F090
:100830008989823028F0C701B8010E94F60501C0FD
:100840008FEF6896E6E00C942517A8E1B0E0EBE2A4
:10085000F4E00C94091769837A838B839C832D833E
:100860003E834F83588789E0E82EF12CEC0EFD1E65
:10087000CE010196B7010E947E058E010F5E1F4FCB
:10088000CE010596B8010E947E058985823040F030
:100890008989823028F0C701B8010E94F60501C09D
:1008A00081E06896E6E00C942517ACE0B0E0EBE55B
:1008B000F4E00C940D1769837A838B839C83CE01BB
:1008C0000196BE016B5F7F4F0E947E058D81823055
:1008D00061F1823050F1843021F48E81882351F10E
:1008E0002EC02F81388537FD20C06E812F31310514
:1008F0001CF06623F9F023C08EE190E0821B930B7D
:1009000029853A854B855C8504C056954795379572
:1009100027958A95D2F76623B1F05095409530958A
:1009200021953F4F4F4F5F4F0EC020E030E040E039
:1009300050E009C02FEF3FEF4FEF5FE704C020E02A
:1009400030E040E050E8B901CA012C96E2E00C9496
:100950002917DF92EF92FF920F931F93FC01E4801F
:10096000F58006811781D1808081823048F480E053
:1009700090E0A0E1B0E0E82AF92A0A2B1B2BA5C0E1
:10098000843009F49FC0823021F4EE24FF248701D3
:1009900005C0E114F1040105110519F4E0E0F0E0EF
:1009A00096C0628173819FEF623879070CF05BC05B
:1009B00022E83FEF261B370B2A3131052CF020E0CF
:1009C00030E040E050E02AC0B801A701022E04C088
:1009D00076956795579547950A94D2F781E090E010
:1009E000A0E0B0E004C0880F991FAA1FBB1F2A9582
:1009F000D2F70197A109B1098E219F21A023B1232C
:100A00000097A105B10521F081E090E0A0E0B0E001
:100A10009A01AB01282B392B4A2B5B2BDA01C90138
:100A20008F779070A070B07080349105A105B105EA
:100A300039F427FF09C0205C3F4F4F4F5F4F04C080
:100A4000215C3F4F4F4F5F4FE0E0F0E02030A0E0EF
:100A50003A07A0E04A07A0E45A0710F0E1E0F0E00E
:100A600079018A0127C06038710564F5FB01E158FE
:100A7000FF4FD801C7018F779070A070B07080349D
:100A80009105A105B10539F4E7FE0DC080E490E0C1
:100A9000A0E0B0E004C08FE390E0A0E0B0E0E80E9A
:100AA000F91E0A1F1B1F17FF05C016950795F7941F
:100AB000E794319687E016950795F794E7948A9521
:100AC000D1F705C0EE24FF248701EFEFF0E06E2F91
:100AD000679566276795902F9F77D794DD24D794E5
:100AE0008E2F8695492F462B582F5D29B701CA01B5
:100AF0001F910F91FF90EF90DF900895FC01DB01B3
:100B0000408151812281622F6F7770E0221F22275E
:100B1000221F9381892F880F822B282F30E0991F65
:100B20009927991F11969C93119721153105A9F5C5
:100B3000411551056105710511F482E037C082E865
:100B40009FEF13969C938E9312979A01AB0167E0E7
:100B5000220F331F441F551F6A95D1F783E08C93F2
:100B60000DC0220F331F441F551F12968D919C916B
:100B70001397019713969C938E931297203080E0E1
:100B8000380780E0480780E4580758F314962D93FF
:100B90003D934D935C93179708952F3F310579F45A
:100BA000411551056105710519F484E08C93089590
:100BB00064FF03C081E08C9312C01C9210C02F57B9
:100BC000304013963C932E93129783E08C9387E0EA
:100BD000440F551F661F771F8A95D1F770641496CE
:100BE0004D935D936D937C93179708951F93DC014C
:100BF000FB019C91923008F447C08081823008F458
:100C000043C0943051F411961C91843099F5818140
:100C1000682F70E0611B71093FC0843021F0923071
:100C200031F48230B9F18181882389F12DC0119688
:100C30001C9111978230F1F081811817D9F4129626
:100C40002D913C911397828193818217930794F0A1
:100C500028173907BCF014968D919D910D90BC9189
:100C6000A02D2481358146815781281739074A07ED
:100C70005B0718F4112341F00AC082179307A407F9
:100C8000B50740F4112319F061E070E005C06FEF83
:100C90007FEF02C060E070E0CB011F910895DF9309
:100CA000CF93CDB7DEB727970FB6F894DEBF0FBE50
:100CB000CDBF89836A834B838981843008F0F2C079
:100CC0008A81883008F0EEC08A81883008F0EAC056
:100CD0008B81813009F06FC08981282F30E03F83FC
:100CE0002E838E819F818130910549F12E813F8134
:100CF000223031052CF48E819F81009761F0D2C0A3
:100D00002E813F812230310571F18E819F818330A8
:100D10009105E9F1C7C0AAE3B0E0EAE3F0E0808121
:100D2000482F8A81282F30E081E090E0022E02C017
:100D3000880F991F0A94E2F7842B8C93B3C0A7E322
:100D4000B0E0E7E3F0E08081482F8A81282F30E08F
:100D500081E090E0022E02C0880F991F0A94E2F70A
:100D6000842B8C939FC0A4E3B0E0E4E3F0E08081A7
:100D7000482F8A81282F30E081E090E0022E02C0C7
:100D8000880F991F0A94E2F7842B8C938BC0A1E300
:100D9000B0E0E1E3F0E08081482F8A81282F30E045
:100DA00081E090E0022E02C0880F991F0A94E2F7BA
:100DB000842B8C9377C08B81882309F073C0898141
:100DC000282F30E03D832C838C819D8181309105DB
:100DD00059F12C813D81223031052CF48C819D818B
:100DE000009769F05FC02C813D812230310589F187
:100DF0008C819D818330910509F440C053C0AAE3E2
:100E0000B0E0EAE3F0E08081482F8A81282F30E0CB
:100E100081E090E0022E02C0880F991F0A94E2F749
:100E2000809584238C933EC0A7E3B0E0E7E3F0E035
:100E30008081482F8A81282F30E081E090E0022EC7
:100E400002C0880F991F0A94E2F7809584238C933F
:100E500029C0A4E3B0E0E4E3F0E08081482F8A8178
:100E6000282F30E081E090E0022E02C0880F991F09
:100E70000A94E2F7809584238C9314C0A1E3B0E038
:100E8000E1E3F0E08081482F8A81282F30E081E083
:100E900090E0022E02C0880F991F0A94E2F7809515
:100EA00084238C9327960FB6F894DEBF0FBECDBF78
:100EB000CF91DF910895DF93CF93CDB7DEB727971A
:100EC0000FB6F894DEBF0FBECDBF89836A834B8314
:100ED0008981843008F0F2C08A81883008F0EEC041
:100EE0008A81883008F0EAC08B81813009F06FC0B8
:100EF0008981282F30E03F832E838E819F8181302E
:100F0000910549F12E813F81223031052CF48E81EB
:100F10009F81009761F0D2C02E813F812230310540
:100F200071F18E819F8183309105E9F1C7C0ABE3F8
:100F3000B0E0EBE3F0E08081482F8A81282F30E099
:100F400081E090E0022E02C0880F991F0A94E2F718
:100F5000842B8C93B3C0A8E3B0E0E8E3F0E0808199
:100F6000482F8A81282F30E081E090E0022E02C0D5
:100F7000880F991F0A94E2F7842B8C939FC0A5E3F6
:100F8000B0E0E5E3F0E08081482F8A81282F30E04F
:100F900081E090E0022E02C0880F991F0A94E2F7C8
:100FA000842B8C938BC0A2E3B0E0E2E3F0E080817D
:100FB000482F8A81282F30E081E090E0022E02C085
:100FC000880F991F0A94E2F7842B8C9377C08B814A
:100FD000882309F073C08981282F30E03D832C835A
:100FE0008C819D818130910559F12C813D81223088
:100FF00031052CF48C819D81009769F05FC02C81B4
:101000003D812230310589F18C819D8183309105AC
:1010100009F440C053C0ABE3B0E0EBE3F0E0808103
:10102000482F8A81282F30E081E090E0022E02C014
:10103000880F991F0A94E2F7809584238C933EC011
:10104000A8E3B0E0E8E3F0E08081482F8A81282F10
:1010500030E081E090E0022E02C0880F991F0A94D0
:10106000E2F7809584238C9329C0A5E3B0E0E5E303
:10107000F0E08081482F8A81282F30E081E090E0E5
:10108000022E02C0880F991F0A94E2F780958423EC
:101090008C9314C0A2E3B0E0E2E3F0E08081482F3B
:1010A0008A81282F30E081E090E0022E02C0880F74
:1010B000991F0A94E2F7809584238C9327960FB6A4
:1010C000F894DEBF0FBECDBFCF91DF910895DF93BF
:1010D000CF9300D000D00F92CDB7DEB78A836B8359
:1010E00019828A81843008F070C08B81883008F0C2
:1010F0006CC08B81883008F068C08A81282F30E06E
:101100003D832C834C815D814130510541F18C81BF
:101110009D818230910534F42C813D81211531056A
:1011200061F055C04C815D814230510551F18C8197
:101130009D8183309105B9F14AC0E9E3F0E08081F7
:10114000282F30E08B81882F90E0A90102C05595AF
:1011500047958A95E2F7CA018170898338C0E6E332
:10116000F0E08081282F30E08B81882F90E0A9016A
:1011700002C0559547958A95E2F7CA018170898327
:1011800026C0E3E3F0E08081282F30E08B81882FB8
:1011900090E0A90102C0559547958A95E2F7CA01EA
:1011A0008170898314C0E0E3F0E08081282F30E073
:1011B0008B81882F90E0A90102C0559547958A95AB
:1011C000E2F7CA018170898302C08FEF8983898128
:1011D0000F900F900F900F900F90CF91DF91089587
:1011E000DF93CF9300D000D0CDB7DEB789836A8379
:1011F0008981843008F076C08A81883008F072C016
:101200008A81883008F06EC08981282F30E03C83C5
:101210002B838B819C818130910549F12B813C810D
:10122000223031052CF48B819C81009761F05AC0EB
:101230002B813C812230310571F18B819C8183307F
:101240009105E9F14FC0ABE3B0E0EBE3F0E0808162
:10125000482F8A81282F30E081E090E0022E02C0E2
:10126000880F991F0A94E2F784278C933BC0A8E368
:10127000B0E0E8E3F0E08081482F8A81282F30E059
:1012800081E090E0022E02C0880F991F0A94E2F7D5
:1012900084278C9327C0A5E3B0E0E5E3F0E08081EC
:1012A000482F8A81282F30E081E090E0022E02C092
:1012B000880F991F0A94E2F784278C9313C0A2E346
:1012C000B0E0E2E3F0E08081482F8A81282F30E00F
:1012D00081E090E0022E02C0880F991F0A94E2F785
:1012E00084278C930F900F900F900F90CF91DF91E8
:1012F0000895DF93CF93CDB7DEB72C970FB6F89450
:10130000DEBF0FBECDBF8A8788E0FE013296DF01C7
:10131000282F1D922A95E9F78A85843008F03FC16D
:101320008A85A82FB0E0BC87AB872B853C85213010
:10133000310509F451C08B859C85823091052CF4D0
:10134000AB85BC85109771F0F4C02B853C852230AD
:10135000310509F47BC08B859C858330910509F4A8
:10136000AFC0E7C0E9E3F0E0808181708A83E9E300
:10137000F0E08081869581708B83E9E3F0E08081E5
:101380008695869581708C83E9E3F0E0808186956F
:101390008695869581708D83E9E3F0E08081829562
:1013A0008F7081708E83E9E3F0E08081829586956D
:1013B000877081708F83E9E3F0E080818295869564
:1013C0008695837081708887E9E3F0E08081881FCB
:1013D0008827881F8987ADC0E6E3F0E080818170AF
:1013E0008A83E6E3F0E08081869581708B83E6E373
:1013F000F0E080818695869581708C83E6E3F0E04D
:10140000808186958695869581708D83E6E3F0E0F0
:10141000808182958F7081708E83E6E3F0E0808119
:1014200082958695877081708F83E6E3F0E08081F6
:10143000829586958695837081708887E6E3F0E0D3
:101440008081881F8827881F898773C0E3E3F0E0C5
:10145000808181708A83E3E3F0E0808186958170EA
:101460008B83E3E3F0E080818695869581708C83A1
:10147000E3E3F0E0808186958695869581708D8383
:10148000E3E3F0E0808182958F7081708E83E3E3E7
:10149000F0E0808182958695877081708F83E3E389
:1014A000F0E080818295869586958370817088872B
:1014B000E3E3F0E08081881F8827881F898739C08F
:1014C000E0E3F0E0808181708A83E0E3F0E08081F6
:1014D000869581708B83E0E3F0E080818695869528
:1014E00081708C83E0E3F0E0808186958695869517
:1014F00081708D83E0E3F0E0808182958F70817050
:101500008E83E0E3F0E0808182958695877081701C
:101510008F83E0E3F0E080818295869586958370E5
:1015200081708887E0E3F0E08081881F8827881F2A
:101530008987EA818C81482F50E08E81682F70E086
:101540008885282F30E08985882F90E0880F991FA3
:10155000820F931F9C01220F331F8F81882F90E0F1
:10156000820F931F880F991F860F971F9C01220FD0
:10157000331F8D81882F90E0820F931F880F991F52
:10158000840F951F9C01220F331F8B81882F90E0C1
:10159000820F931F880F991F8E0F898302C08FEFD0
:1015A000898389812C960FB6F894DEBF0FBECDBF1C
:1015B000CF91DF910895DF93CF93CDB7DEB72D970D
:1015C0000FB6F894DEBF0FBECDBF8A876B8788E069
:1015D000FE013296DF01282F1D922A95E9F78A85B0
:1015E000843008F09AC18A85482F50E05D874C8787
:1015F0008C859D858130910509F470C0AC85BD85D1
:10160000A230B10534F42C853D852115310571F0EA
:101610006CC14C855D854230510509F4B7C08C859D
:101620009D858330910509F409C15FC1E9E3F0E0CC
:101630008081282F30E08B85882F90E0880F991FBC
:10164000880F991FD90102C0B595A7958A95E2F731
:10165000CD0181708A83E9E3F0E08081282F30E0BA
:101660008B85882F90E0880F991F880F991F01960E
:10167000A90102C0559547958A95E2F7CA01817084
:101680008B83E9E3F0E08081282F30E08B85882F81
:1016900090E0880F991F0196880F991FD90102C009
:1016A000B595A7958A95E2F7CD0181708C83E9E322
:1016B000F0E08081282F30E08B85882F90E0880F24
:1016C000991F880F991F0396A90102C05595479548
:1016D0008A95E2F7CA0181708D8307C1E6E3F0E0E5
:1016E0008081282F30E08B85882F90E0880F991F0C
:1016F000880F991FD90102C0B595A7958A95E2F781
:10170000CD0181708A83E6E3F0E08081282F30E00C
:101710008B85882F90E0880F991F880F991F01965D
:10172000A90102C0559547958A95E2F7CA018170D3
:101730008B83E6E3F0E08081282F30E08B85882FD3
:1017400090E0880F991F0196880F991FD90102C058
:10175000B595A7958A95E2F7CD0181708C83E6E374
:10176000F0E08081282F30E08B85882F90E0880F73
:10177000991F880F991F0396A90102C05595479597
:101780008A95E2F7CA0181708D83AFC0E3E3F0E090
:101790008081282F30E08B85882F90E0880F991F5B
:1017A000880F991FD90102C0B595A7958A95E2F7D0
:1017B000CD0181708A83E3E3F0E08081282F30E05F
:1017C0008B85882F90E0880F991F880F991F0196AD
:1017D000A90102C0559547958A95E2F7CA01817023
:1017E0008B83E3E3F0E08081282F30E08B85882F26
:1017F00090E0880F991F0196880F991FD90102C0A8
:10180000B595A7958A95E2F7CD0181708C83E3E3C6
:10181000F0E08081282F30E08B85882F90E0880FC2
:10182000991F880F991F0396A90102C055954795E6
:101830008A95E2F7CA0181708D8357C0E0E3F0E03A
:101840008081282F30E08B85882F90E0880F991FAA
:10185000880F991FD90102C0B595A7958A95E2F71F
:10186000CD0181708A83E0E3F0E08081282F30E0B1
:101870008B85882F90E0880F991F880F991F0196FC
:10188000A90102C0559547958A95E2F7CA01817072
:101890008B83E0E3F0E08081282F30E08B85882F78
:1018A00090E0880F991F0196880F991FD90102C0F7
:1018B000B595A7958A95E2F7CD0181708C83E0E319
:1018C000F0E08081282F30E08B85882F90E0880F12
:1018D000991F880F991F0396A90102C05595479536
:1018E0008A95E2F7CA0181708D834A818C81282F05
:1018F00030E08D81882F90E0880F991F820F931F11
:101900009C01220F331F8B81882F90E0820F931F41
:10191000880F991F840F898302C08FEF8983898183
:101920002D960FB6F894DEBF0FBECDBFCF91DF91DD
:101930000895DF93CF9300D000D0CDB7DEB7898371
:101940006A838981282F30E03C832B838B819C81A3
:1019500081309105D1F02B813C81223031052CF46E
:101960008B819C81009761F01EC02B813C812230CD
:10197000310581F08B819C818330910581F013C00A
:10198000EAE3F0E08A8180830EC0E7E3F0E08A8139
:10199000808309C0E4E3F0E08A81808304C0E1E34E
:1019A000F0E08A8180830F900F900F900F90CF917D
:1019B000DF910895DF93CF9300D000D0CDB7DEB78D
:1019C00089836A838981282F30E03C832B838B8134
:1019D0009C8181309105D1F02B813C8122303105F1
:1019E0002CF48B819C81009761F01EC02B813C817F
:1019F0002230310581F08B819C818330910581F00B
:101A000013C0EBE3F0E08A8180830EC0E8E3F0E0EE
:101A10008A81808309C0E5E3F0E08A81808304C085
:101A2000E2E3F0E08A8180830F900F900F900F9097
:101A3000CF91DF910895DF93CF9300D000D00F9224
:101A4000CDB7DEB78A83198283E062E040E00E946E
:101A50004F0683E062E041E00E945B07ABE5B0E047
:101A6000EBE5F0E0808180648C93AFE5B0E0EFE5DA
:101A7000F0E0808180688C938A81282F30E03D835C
:101A80002C838C819D818130910521F12C813D81B8
:101A9000223031052CF48C819D81009761F047C084
:101AA0002C813D812230310521F18C819D81833053
:101AB000910571F13CC0A5E5B0E0E5E5F0E080817D
:101AC0008E7F8C93A5E5B0E0E5E5F0E080818D7F29
:101AD0008C9330C0A5E5B0E0E5E5F0E08081816061
:101AE0008C93A5E5B0E0E5E5F0E0808182608C9321
:101AF00021C0A5E5B0E0E5E5F0E080818E7F8C9324
:101B0000A5E5B0E0E5E5F0E0808182608C9312C04D
:101B1000A5E5B0E0E5E5F0E0808181608C93A5E586
:101B2000B0E0E5E5F0E080818D7F8C9303C091E02B
:101B30009B8302C029812B838B810F900F900F9084
:101B40000F900F90CF91DF910895DF93CF9300D046
:101B500000D00F92CDB7DEB78A83198283E063E0AD
:101B600040E00E944F0683E063E041E00E945B0793
:101B7000ABE5B0E0EBE5F0E0808180688C93AFE509
:101B8000B0E0EFE5F0E0808180688C938A81282FB7
:101B900030E03D832C838C819D818130910521F142
:101BA0002C813D81223031052CF48C819D81009760
:101BB00061F047C02C813D812230310521F18C81BB
:101BC0009D818330910571F13CC0A5E5B0E0E5E56C
:101BD000F0E080818E7F8C93A5E5B0E0E5E5F0E054
:101BE00080818D7F8C9330C0A5E5B0E0E5E5F0E025
:101BF000808181608C93A5E5B0E0E5E5F0E080812F
:101C000082608C9321C0A5E5B0E0E5E5F0E080813D
:101C10008E7F8C93A5E5B0E0E5E5F0E08081826001
:101C20008C9312C0A5E5B0E0E5E5F0E0808181602D
:101C30008C93A5E5B0E0E5E5F0E080818D7F8C93A5
:101C400003C091E09B8302C029812B838B810F907D
:101C50000F900F900F900F90CF91DF910895DF9329
:101C6000CF9300D000D00F92CDB7DEB78A83198210
:101C700081E062E040E00E944F0681E062E041E0E6
:101C80000E945B07ABE5B0E0EBE5F0E080818062AD
:101C90008C93AFE5B0E0EFE5F0E0808180688C9355
:101CA0008A81282F30E03D832C838C819D81813077
:101CB000910531F02C813D812230310549F010C071
:101CC000A4E5B0E0E4E5F0E0808180648C930BC093
:101CD000A4E5B0E0E4E5F0E080818F7B8C9303C065
:101CE00031E03B8302C089818B838B810F900F9001
:101CF0000F900F900F90CF91DF910895DF93CF93C6
:101D000000D00F92CDB7DEB79B838A8319828A8178
:101D10009B81009739F08A819B8190936F0080931B
:101D20006E0002C081E0898389810F900F900F902F
:101D3000CF91DF910895DF93CF9300D00F92CDB76D
:101D4000DEB79B838A8319828A819B81009739F051
:101D50008A819B81909371008093700002C081E022
:101D6000898389810F900F900F90CF91DF91089513
:101D7000DF93CF9300D00F92CDB7DEB79B838A83DA
:101D800019828A819B81009739F08A819B81909387
:101D900073008093720002C081E0898389810F9073
:101DA0000F900F90CF91DF910895DF93CF930F9213
:101DB000CDB7DEB789838981813041F4ABE5B0E0EE
:101DC000EBE5F0E0808180648C930AC089818823F0
:101DD00039F4ABE5B0E0EBE5F0E080818F7B8C93EC
:101DE0000F90CF91DF9108951F920F920FB60F922F
:101DF00011242F933F934F935F936F937F938F9310
:101E00009F93AF93BF93EF93FF93DF93CF93CDB7A0
:101E1000DEB780916E0090916F00009729F0E091FD
:101E20006E00F0916F000995CF91DF91FF91EF91D6
:101E3000BF91AF919F918F917F916F915F914F91E2
:101E40003F912F910F900FBE0F901F9018951F92EA
:101E50000F920FB60F9211242F933F934F935F93DE
:101E60006F937F938F939F93AF93BF93EF93FF9362
:101E7000DF93CF93CDB7DEB7809170009091710062
:101E8000009729F0E0917000F09171000995CF91D1
:101E9000DF91FF91EF91BF91AF919F918F917F91D2
:101EA0006F915F914F913F912F910F900FBE0F90C7
:101EB0001F9018951F920F920FB60F9211242F9317
:101EC0003F934F935F936F937F938F939F93AF93C2
:101ED000BF93EF93FF93DF93CF93CDB7DEB780919E
:101EE000720090917300009729F0E0917200F091D8
:101EF00073000995CF91DF91FF91EF91BF91AF9161
:101F00009F918F917F916F915F914F913F912F9111
:101F10000F900FBE0F901F901895DF93CF93CDB702
:101F2000DEB7AFE5B0E0EFE5F0E0808180688C934C
:101F3000CF91DF910895DF93CF93CDB7DEB7AFE5B3
:101F4000B0E0EFE5F0E080818F778C93CF91DF9167
:101F50000895DF93CF93CDB7DEB769970FB6F894A6
:101F6000DEBF0FBECDBF898F81E060E040E00E9400
:101F70005B0781E061E040E00E945B0780E0698DE3
:101F80000E94DA0C81E062E041E00E945B0780E0A1
:101F900090E0A0E8BFE38D8B9E8BAF8BB88F6D89EF
:101FA0007E898F89988D2BEA3AEA4AEA5EE30E949D
:101FB0001F02DC01CB01898B9A8BAB8BBC8B6989AF
:101FC0007A898B899C8920E030E040E85FE30E94B9
:101FD000250488231CF481E0888B91C069897A8963
:101FE0008B899C8920E030E04FE753E40E94C503D1
:101FF00018160CF07BC06D897E898F89988D20E042
:1020000030E04AE754E40E941903DC01CB018C87DD
:102010009D87AE87BF876C857D858E859F8520E0F7
:1020200030E04AE753E40E941F02DC01CB018887BD
:102030009987AA87BB87688579858A859B8520E0F3
:1020400030E040E85FE30E94250488232CF481E01F
:1020500090E09F838E833FC0688579858A859B85C4
:1020600020E03FEF4FE757E40E94C50318164CF5F8
:102070006C857D858E859F8520E030E040E251E4CF
:102080000E941F02DC01CB01BC01CD010E9449006E
:10209000DC01CB019F838E830FC089E190E09D839B
:1020A0008C838C819D810197F1F79D838C838E8138
:1020B0009F8101979F838E838E819F81009769F70F
:1020C00024C0688579858A859B850E944900DC014A
:1020D000CB019F838E838E819F819B838A838A819C
:1020E0009B810197F1F79B838A830FC069897A8965
:1020F0008B899C890E944900DC01CB01888B8889EF
:10210000898389818A95F1F7898381E062E040E0E3
:102110000E945B0769960FB6F894DEBF0FBECDBF75
:10212000CF91DF910895DF93CF93CDB7DEB7699755
:102130000FB6F894DEBF0FBECDBF898F81E060E09F
:1021400041E00E945B0781E061E040E00E945B07A4
:1021500080E0698D0E94DA0C81E062E041E00E943B
:102160005B0780E090E0A0E8BFE38D8B9E8BAF8B98
:10217000B88F6D897E898F89988D2BEA3AEA4AEA71
:102180005EE30E941F02DC01CB01898B9A8BAB8B33
:10219000BC8B69897A898B899C8920E030E040E892
:1021A0005FE30E94250488231CF481E0888B91C0A2
:1021B00069897A898B899C8920E030E04FE753E474
:1021C0000E94C50318160CF07BC06D897E898F892B
:1021D000988D20E030E04AE754E40E941903DC01C6
:1021E000CB018C879D87AE87BF876C857D858E856B
:1021F0009F8520E030E04AE753E40E941F02DC01A3
:10220000CB0188879987AA87BB87688579858A8566
:102210009B8520E030E040E85FE30E9425048823AE
:102220002CF481E090E09F838E833FC068857985A0
:102230008A859B8520E03FEF4FE757E40E94C50366
:1022400018164CF56C857D858E859F8520E030E0E5
:1022500040E251E40E941F02DC01CB01BC01CD0130
:102260000E944900DC01CB019F838E830FC089E16E
:1022700090E09D838C838C819D810197F1F79D83F4
:102280008C838E819F8101979F838E838E819F8116
:10229000009769F724C0688579858A859B850E94A7
:1022A0004900DC01CB019F838E838E819F819B83BC
:1022B0008A838A819B810197F1F79B838A830FC070
:1022C00069897A898B899C890E944900DC01CB014C
:1022D000888B8889898389818A95F1F7898381E050
:1022E00062E040E00E945B0769960FB6F894DEBF9B
:1022F0000FBECDBFCF91DF910895DF93CF93CDB7C0
:10230000DEB72E970FB6F894DEBF0FBECDBF80E0CC
:102310006FEF0E94990C81E060E041E00E944F065F
:1023200081E061E041E00E944F0681E062E041E02F
:102330000E944F0680E090E0A0EFB1E48B879C877D
:10234000AD87BE876B857C858D859E8520E030E0DE
:102350004AE753E40E941F02DC01CB018F83988778
:10236000A987BA876F81788589859A8520E030E0D2
:1023700040E85FE30E94250488232CF481E090E08C
:102380009E838D833FC06F81788589859A8520E003
:102390003FEF4FE757E40E94C50318164CF56B85D5
:1023A0007C858D859E8520E030E040E251E40E94EE
:1023B0001F02DC01CB01BC01CD010E944900DC0100
:1023C000CB019E838D830FC089E190E09C838B833A
:1023D0008B819C810197F1F79C838B838D819E81FA
:1023E00001979E838D838D819E81009769F714C02C
:1023F0006F81788589859A850E944900DC01CB012F
:102400009E838D838D819E819A83898389819A8120
:102410000197F1F79A83898388E30E94A90F8CE0E2
:102420000E94A90F81E00E94A90F2E960FB6F89482
:10243000DEBF0FBECDBFCF91DF910895DF93CF9365
:1024400000D00F92CDB7DEB79B838A8319820EC06E
:102450008981282F30E08A819B81FC01E20FF31FE4
:1024600080810E94931089818F5F89838981282FC1
:1024700030E08A819B81FC01E20FF31F8081882379
:1024800039F70F900F900F90CF91DF910895DF9360
:10249000CF9300D00F92CDB7DEB78A836B831982BA
:1024A0008A81843000F58B818031E8F48A81882329
:1024B00019F48B81898314C08A81813021F48B8146
:1024C000805489830DC08A81823021F48B818C569F
:1024D000898306C08A81833019F48B818C52898369
:1024E00089810E94A90F0F900F900F90CF91DF91DB
:1024F0000895DF93CF93CDB7DEB727970FB6F89443
:10250000DEBF0FBECDBF9C838B836D834E832F8335
:102510008D81882F90E0880F991F880F991F880F51
:10252000991F8A838A81805C0E94A90F19820EC03C
:102530008981282F30E08B819C81FC01E20FF31F01
:1025400080810E94931089818F5F8983898188307F
:1025500078F38E816F810E9447128D810E949310C3
:1025600027960FB6F894DEBF0FBECDBFCF91DF9197
:102570000895DF93CF93CDB7DEB781E00E94A90F16
:10258000CF91DF910895DF93CF93CDB7DEB7A9E563
:10259000B0E0E9E5F0E0808180618C93AFE4B0E0E9
:1025A000EFE4F0E080818E7F8C93AFE4B0E0EFE465
:1025B000F0E080818D7F8C93AFE4B0E0EFE4F0E059
:1025C000808188608C93AFE4B0E0EFE4F0E080813C
:1025D0008F7E8C93AFE4B0E0EFE4F0E08081806424
:1025E0008C93AFE4B0E0EFE4F0E080818F7B8C93DC
:1025F000AEE4B0E0EEE4F0E080818E7F8C93AEE458
:10260000B0E0EEE4F0E080818D7F8C93AEE4B0E04A
:10261000EEE4F0E0808184608C930E948D0FCF9176
:10262000DF910895DF93CF9300D00F92CDB7DEB73F
:102630009B838A8319828A819B81009739F08A81E2
:102640009B81909375008093740002C081E0898320
:1026500089810F900F900F90CF91DF9108951F9275
:102660000F920FB60F9211242F933F934F935F93C6
:102670006F937F938F939F93AF93BF93EF93FF934A
:10268000DF93CF93CDB7DEB7809174009091750042
:10269000009729F0E0917400F09175000995CF91B1
:1026A000DF91FF91EF91BF91AF919F918F917F91BA
:1026B0006F915F914F913F912F910F900FBE0F90AF
:1026C0001F901895DF93CF9300D00F92CDB7DEB750
:1026D0009B838A8319828A819B81009739F08A8142
:1026E0009B81909377008093760002C081E089837C
:1026F00089810F900F900F90CF91DF9108951F92D5
:102700000F920FB60F9211242F933F934F935F9325
:102710006F937F938F939F93AF93BF93EF93FF93A9
:10272000DF93CF93CDB7DEB780917600909177009D
:10273000009729F0E0917600F09177000995CF910C
:10274000DF91FF91EF91BF91AF919F918F917F9119
:102750006F915F914F913F912F910F900FBE0F900E
:102760001F901895DF93CF9300D0CDB7DEB79A8333
:102770008983EAE4F0E089819A81918380830F90D4
:102780000F90CF91DF910895DF93CF9300D0CDB715
:10279000DEB79A838983ECE4F0E089819A819183A2
:1027A00080830F900F90CF91DF910895DF93CF93A7
:1027B0000F92CDB7DEB789838981813079F4AFE498
:1027C000B0E0EFE4F0E0808180648C93AFE4B0E0AF
:1027D000EFE4F0E080818F778C9311C089818823AA
:1027E00071F4AFE4B0E0EFE4F0E080818F7B8C9394
:1027F000AFE4B0E0EFE4F0E080818F778C930F904E
:10280000CF91DF910895DF93CF93CDB7DEB70E94CC
:10281000C116FFCFDF93CF93CDB7DEB780919A007B
:1028200090919B00A0919C00B0919D000196A11DEC
:10283000B11D80939A0090939B00A0939C00B0934D
:102840009D00CF91DF910895DF93CF93CDB7DEB791
:1028500068970FB6F894DEBF0FBECDBF0E94B912C5
:1028600080919A0090919B00A0919C00B0919D0056
:102870008093960090939700A0939800B09399004E
:1028800080E090E0AAEFB3E48D8B9E8BAF8BB88F86
:102890006D897E898F89988D2BEA3AEA4AE250E465
:1028A0000E941F02DC01CB01898B9A8BAB8BBC8B06
:1028B00069897A898B899C8920E030E040E85FE370
:1028C0000E94250488231CF481E0888B91C06989CB
:1028D0007A898B899C8920E030E04FE753E40E949D
:1028E000C50318160CF07BC06D897E898F89988D81
:1028F00020E030E04AE754E40E941903DC01CB01F8
:102900008C879D87AE87BF876C857D858E859F85EB
:1029100020E030E04AEF54E40E941F02DC01CB01CA
:1029200088879987AA87BB87688579858A859B85EB
:1029300020E030E040E85FE30E94250488232CF487
:1029400081E090E09F838E833FC0688579858A858A
:102950009B8520E03FEF4FE757E40E94C503181620
:102960004CF56C857D858E859F8520E030E040E2CA
:1029700051E40E941F02DC01CB01BC01CD010E9489
:102980004900DC01CB019F838E830FC088EC90E06F
:102990009D838C838C819D810197F1F79D838C832E
:1029A0008E819F8101979F838E838E819F81009767
:1029B00069F724C0688579858A859B850E944900CE
:1029C000DC01CB019F838E838E819F819B838A83D1
:1029D0008A819B810197F1F79B838A830FC0698964
:1029E0007A898B899C890E944900DC01CB01888B04
:1029F0008889898389818A95F1F7898380919600F6
:102A000090919700A0919800B0919900883E23E0A2
:102A1000920720E0A20720E0B20768F480919A00B4
:102A200090919B00A0919C00B0919D00BC01CD01B4
:102A30000E94E315AFC08091960090919700A091FD
:102A40009800B0919900883E23E0920720E0A20709
:102A500020E0B20758F18091960090919700A091E4
:102A60009800B0919900803127E2920720E0A207F8
:102A700020E0B207D8F48091960090919700A09141
:102A80009800B091990028EE33E040E050E0BC019E
:102A9000CD010E94DB16DA01C901BC01CD010E9403
:102AA000E31580E690E00E941E1274C080919600AB
:102AB00090919700A0919800B0919900803127E201
:102AC000920720E0A20720E0B20758F1809196001B
:102AD00090919700A0919800B0919900803A26E8D3
:102AE000920721E0A20720E0B207D8F48091960077
:102AF00090919700A0919800B091990028EE33E052
:102B000040E050E0BC01CD010E94DB16DA01C901B2
:102B1000BC01CD010E94E31580E690E00E941E12E8
:102B200039C08091960090919700A0919800B09143
:102B30009900803A26E8920721E0A20720E0B20738
:102B400048F18091960090919700A0919800B091E3
:102B50009900803422E492072FE0A20720E0B20718
:102B6000C8F48091960090919700A0919800B09140
:102B7000990028EE33E040E050E0BC01CD010E9416
:102B8000DB16DA01C901BC01CD010E94E3158BE619
:102B90000E94931082E690E00E941E1210929A000A
:102BA00010929B0010929C0010929D008EEE95E872
:102BB0000E94C41368960FB6F894DEBF0FBECDBF57
:102BC000CF91DF910895EF92FF920F931F93DF93C0
:102BD000CF93CDB7DEB72E970FB6F894DEBF0FBEFA
:102BE000CDBF6B877C878D879E871F82188619864D
:102BF0001A868B859C85AD85BE858B839C83AD8332
:102C0000BE8325C08B819C81AD81BE812AE030E0EE
:102C100040E050E0BC01CD010E94DB16DA01C901A1
:102C20008B839C83AD83BE838B819C81AD81BE8170
:102C30000097A105B10599F08F819885A985BA857E
:102C40000196A11DB11D8F839887A987BA878B81B3
:102C50009C81AD81BE810097A105B10599F68F8158
:102C60009885A985BA858B839C83AD83BE831F829B
:102C7000188619861A8642C02B813C814D815E815F
:102C80008F819885A985BA8579018A01E81AF90AA0
:102C90000A0B1B0B8B859C85AD85BE852AE030E039
:102CA00040E050E0BC01CD010E94DB16DC01CB010D
:102CB0009C01C701880F991FFC01E858FF4F318321
:102CC00020838B859C85AD85BE852AE030E040E081
:102CD00050E0BC01CD010E94DB16DA01C9018B87EF
:102CE0009C87AD87BE878F819885A985BA85019617
:102CF000A11DB11D8F839887A987BA872F81388539
:102D000049855A858B819C81AD81BE81821793074D
:102D1000A407B50708F0B0CF1F82188619861A8657
:102D20001A82198211C089819A81880F991FFC012A
:102D3000E858FF4F80819181805D0E9493108981C6
:102D40009A8101969A83898389819A819C0144277B
:102D500037FD4095542F8B819C81AD81BE818217B8
:102D60009307A407B507F8F62E960FB6F894DEBFC2
:102D70000FBECDBFCF91DF911F910F91FF90EF90CC
:102D80000895DF93CF93CDB7DEB70E947D1181E028
:102D90000E941B0D8AE094E10E947E0E8EEE95E863
:102DA0000E94C41384E294E10E9462130E94C31241
:102DB000CF91DF910895A1E21A2EAA1BBB1BFD0142
:102DC0000DC0AA1FBB1FEE1FFF1FA217B307E4070A
:102DD000F50720F0A21BB30BE40BF50B661F771F62
:102DE000881F991F1A9469F7609570958095909542
:102DF0009B01AC01BD01CF0108952F923F924F92EC
:102E00005F926F927F928F929F92AF92BF92CF927A
:102E1000DF92EF92FF920F931F93CF93DF93CDB783
:102E2000DEB7CA1BDB0B0FB6F894DEBF0FBECDBFFB
:102E300009942A88398848885F846E847D848C84CC
:102E40009B84AA84B984C884DF80EE80FD800C81D5
:102E50001B81AA81B981CE0FD11D0FB6F894DEBFB8
:0C2E60000FBECDBFED010895F894FFCF28
:0E2E6C004B0020487A0000000000000000002B
:00000001FF
